:1000000000400020BF040000B5040000B50400005B
:100010006D0400006D0400006D0400006D0400001C
:100020006D0400006D0400006D040000B5040000C4
:100030006D0400006D040000B5040000B50400006C
:10004000B5040000B5040000B5040000B5040000CC
:10005000B50400006D040000B5040000B504000004
:10006000B5040000B5040000B5040000B5040000AC
:10007000B5040000B5040000B5040000B50400009C
:10008000B5040000B5040000B5040000B50400008C
:10009000B5040000B5040000B5040000B50400007C
:1000A000B5040000B50400006D0400006D040000FC
:1000B0006D0400006D0400006D0400006D0400007C
:1000C000074B1B68002B03D1064A1368002BFCD09A
:1000D0000023034A1360034A1360034B1860704700
:1000E000000000201C2100401C25004010B51648CF
:1000F00000230360154A802149041160144A8021BD
:1001000089041160134A11680C24214311601249BB
:100110000A6822430A60114A11491160114A1360AA
:10012000114A18211160114A013111600422026044
:10013000033A0F490A600F490A600F490B600F49E3
:100140000B600F4B1A6010BD0025004018050050D1
:100150001C05005060070050640700502425004033
:10016000005027006C2500400C250040142500405D
:100170000820004000200040082100401C210040D1
:10018000000000200FB400B583B004AA02CA019297
:10019000034800F048F903B008BC04B01847C04653
:1001A000C1000000884202DB401A8142FCDD70473A
:1001B0000222012303280ADC0EE09B1A9342FCDA98
:1001C000002B09D0013213005343834203DC0300A8
:1001D0009042F2DAF4E7012318007047034B044A17
:1001E0001A60044B044A1A607047C0461805005054
:1001F000F0FF000004050050BF5F0000014B00222B
:100200001A6070470405005070B5FFF76FFFFFF7E5
:10021000E5FF00250224F426FF3602E00134B54252
:100220000BDC2000FFF7C4FF0028F7D001352200C7
:1002300029000448FFF7A6FFF0E7034B00221A60ED
:1002400070BDC046E006000004050050F8B504008B
:100250000E0015000F350023D373084F013D310008
:10026000200000F037FA7B5C2B703100200000F09A
:10027000ABF9041EF2D12800F8BDC0464C070000BF
:1002800010B50368002B02D00800984710BD4368E2
:100290005A1C42601970F9E770B505000C00097826
:1002A000002906D02800FFF7EBFF01342178002950
:1002B000F8D170BDF0B5C64600B584B006000D009B
:1002C0001700097800295BD104B004BC9046F0BD4A
:1002D0003D1D39783000FFF7D3FF2F004CE03D1D66
:1002E0003868002809DB6A460A21FFF7AFFF0100E2
:1002F0003000FFF7D1FF2F003EE040426A460A215E
:10030000FFF7A4FF411E2D230B70F1E73D1D396857
:100310003000FFF7C1FF2F002EE03D1D38686A4610
:100320000A21FFF793FF01003000FFF7B5FF2F0010
:1003300022E03B1D98463D68002D05D1302130005C
:10034000FFF79EFF474617E015493000FFF7A4FF6F
:100350006A4610212800FFF779FF01003000FFF7FF
:100360009BFF474608E011003000FFF789FF03E0DC
:100370003000FFF785FF2C00651C61780029A3D0B1
:100380002529F5D16A78002AF2D06C1C1300633B52
:10039000D9B21529E7D88B000249CB589F46C046F1
:1003A00060070000F406000010B5037800242D2B30
:1003B00015D001780B00303B092B13D800220130F7
:1003C00093009B185B005B18303B1A0001780B0010
:1003D000303B092BF3D91000002C05D110BD0130A2
:1003E0000134E6E70022F6E75042F7E7020000207A
:1003F00007E01900613905290CD800015738181891
:1004000001321378190030390929F2D80001303847
:100410001818F5E719004139052903D800013738C4
:100420001818EDE7704700B583B0009000230193E2
:100430006846FFF73FFF03B000BD0EB430B584B08F
:10044000040007AA02CA002502950390019202A89F
:10045000FFF730FF039B5A1C03921D700398001B8B
:1004600004B030BC08BC03B01847C04672B60C4B91
:100470000C4A1A600C4A8020C001002110600B4B0E
:10048000C046C046C046013B002BF9D11160084B65
:10049000C046C046C046013B002BF9D1EEE7C0463E
:1004A00014050050F0FF00000405005040420F000A
:1004B000400D030010B5FFF7D9FF10BD704710B510
:1004C000164A136803210B431360154A154B9A42D1
:1004D0000DD20333144A9B1A9B0801339B00002260
:1004E0000F4812498C58845004329A42FAD1104A6B
:1004F000104B9A4209D2111D03335B1A0320834328
:100500005B18002102C29A42FCD1FFF7D7FFFFF728
:100510007BFEFFF7D3FF20BFFDE7C0462405004068
:1005200000000020000000200400002064070000FC
:10053000000000200400002070B5002812DB8310AA
:100540009B00134A944663441C68C000FF221600B7
:10055000864003252E40B4430A4082402A4022436D
:100560001A6070BD030008339B109B00094A944633
:1005700063441C68C000FF221600864003252E40FD
:10058000B4430A4082402A4022431A60E9E7C04649
:1005900000E400E01CED00E001238340014A136009
:1005A0007047C04600E100E001238340014A136028
:1005B0007047C04680E100E001238340014A136098
:1005C0007047C04680E200E0002243088B4274D3AB
:1005D00003098B425FD3030A8B4244D3030B8B4244
:1005E00028D3030C8B420DD3FF22090212BA030C4D
:1005F0008B4202D31212090265D0030B8B4219D32E
:1006000000E0090AC30B8B4201D3CB03C01A52414D
:10061000830B8B4201D38B03C01A5241430B8B4295
:1006200001D34B03C01A5241030B8B4201D30B037E
:10063000C01A5241C30A8B4201D3CB02C01A5241A5
:10064000830A8B4201D38B02C01A5241430A8B4268
:1006500001D34B02C01A5241030A8B4201D30B0251
:10066000C01A5241CDD2C3098B4201D3CB01C01A6B
:10067000524183098B4201D38B01C01A5241430975
:100680008B4201D34B01C01A524103098B4201D363
:100690000B01C01A5241C3088B4201D3CB00C01AD0
:1006A000524183088B4201D38B00C01A5241430848
:1006B0008B4201D34B00C01A5241411A00D201466D
:1006C000524110467047FFE701B5002000F006F8E0
:1006D00002BDC0460029F7D076E770477047C04694
:1006E0007072696D6528256429203D2025640D0AF6
:1006F00000000000D0020000DE02000066030000DF
:100700006603000066030000660300006603000045
:100710006603000066030000660300006603000035
:100720006603000066030000660300006603000025
:10073000660300000C030000660300001A030000BB
:1007400066030000660300003203000030313233DC
:1007500034353637383961626364656600000000FD
:0407600030780000ED
:00000001FF
