:1000000000400020A30200009902000099020000B5
:100010005102000051020000510200005102000094
:10002000510200005102000051020000990200003C
:1000300051020000510200009902000099020000E4
:100040009902000099020000990200009902000044
:10005000990200005102000099020000990200007C
:100060009902000099020000990200009902000024
:100070009902000099020000990200009902000014
:100080009902000099020000990200009902000004
:1000900099020000990200009902000099020000F4
:1000A0009902000099020000510200005102000074
:1000B00051020000510200005102000051020000F4
:1000C000144B802252041A60134B802292041A604F
:1000D000124B1A680C210A431A60114A13680B4329
:1000E0001360104B104A1A600022104B1A60104B1C
:1000F0000C3119600F4B013119600F4B1539196024
:1001000001230E490B600E490B600E490A600E4A2E
:1001100013607047180500501C0500506007005020
:100120006407005024250040005027006C25004043
:100130000C25004014250040002500400820004008
:10014000002000400821004000000020054A1368FC
:10015000002BFCD0044B1B68024A00211160FF20D9
:10016000184070470821004018250040074B1B68C5
:10017000002B03D1064A1368002BFCD00023034A4E
:100180001360034A1360034B18607047000000209F
:100190001C2100401C25004010B5040000780028F8
:1001A00005D00134FFF7E2FF20780028F9D110BD17
:1001B00070B51348FFF7F0FF124CFFF7C7FFFF239E
:1001C00003400D2B15D07F2B0BD0082B09D00E4BE5
:1001D0009C42F2D2C0B2651C2070FFF7C7FF2C0012
:1001E000EBE7084B9C42E8D9013C0848FFF7D4FFF5
:1001F000E3E7002323700648FFF7CEFF70BDC0463B
:10020000AC0300000400002054000020B0030000F4
:10021000C803000070B5FFF753FF0948FFF7BCFFA4
:10022000084E094D094CFFF7C3FF3000FFF7B4FF3C
:100230002800FFF7B1FF2000FFF7AEFFF3E7C0464D
:10024000B4030000CC03000004000020C803000039
:1002500072B60C4B0C4A1A600C4A8020C001002177
:1002600010600B4BC046C046C046013B002BF9D185
:100270001160084BC046C046C046013B002BF9D177
:10028000EEE7C04614050050F0FF000004050050E2
:1002900040420F00400D030010B5FFF7D9FF10BD1D
:1002A000704710B5164A136803210B431360154AB3
:1002B000154B9A420DD20333144A9B1A9B08013303
:1002C0009B0000220F4812498C58845004329A42F5
:1002D000FAD1104A104B9A4209D2111D03335B1A0E
:1002E000032083435B18002102C29A42FCD1FFF72E
:1002F000D7FFFFF78FFFFFF7D3FF20BFFDE7C04613
:100300002405004000000020000000200400002020
:10031000D0030000000000205400002070B5002829
:1003200012DB83109B00134A944663441C68C00090
:10033000FF221600864003252E40B4430A40824027
:100340002A4022431A6070BD030008339B109B00B3
:10035000094A944663441C68C000FF221600864088
:1003600003252E40B4430A4082402A4022431A60AB
:10037000E9E7C04600E400E01CED00E00123834013
:10038000014A13607047C04600E100E0012383404A
:10039000014A13607047C04680E100E001238340BA
:1003A000014A13607047C04680E200E03E20000032
:1003B000082008000D0A48656C6C6F206D69637237
:1003C0006F3A776F726C64210D0A00002D3E200099
:00000001FF
