:1000000000400020F7010000ED010000ED010000BC
:10001000A5010000A5010000A5010000A501000048
:10002000A5010000A5010000A5010000ED010000F0
:10003000A5010000A5010000ED010000ED01000098
:10004000ED010000ED010000ED010000ED010000F8
:10005000ED010000A5010000ED010000ED01000030
:10006000ED010000ED010000ED010000ED010000D8
:10007000ED010000ED010000ED010000ED010000C8
:10008000ED010000ED010000ED010000ED010000B8
:10009000ED010000ED010000ED010000ED010000A8
:1000A000ED010000ED010000A5010000A501000028
:1000B000A5010000A5010000A5010000A5010000A8
:1000C000400005D0C046C046C04601380028F9D1DE
:1000D0007047F8B507000C000A4E0B4D002C10DDE0
:1000E0003B6833602800FFF7EBFF7B683360280034
:1000F000FFF7E6FFBB6833602800FFF7E1FF013C34
:10010000ECE7F8BD0405005088130000F8B5CE46B2
:10011000474680B51D4B1E4A1A6000231D4A1360D6
:100120001D4A13601D4A116880239B0219408946AD
:1001300012688023DB041A4090460024174D802764
:10014000BF021E0008E00424600000198000144B68
:1001500018180121FFF7BDFF2B683B404B459B4121
:100160005B42E41A2B68334043459B415B422A685B
:100170003A4091462A6832409046E418E3D4631F1F
:100180005A1E93415B421C40DEE7C04614050050F6
:10019000F0FF0000440700506807005010050050B1
:1001A0000003000072B60C4B0C4A1A600C4A802007
:1001B000C001002110600B4BC046C046C046013B49
:1001C000002BF9D11160084BC046C046C046013B28
:1001D000002BF9D1EEE7C04614050050F0FF0000F7
:1001E0000405005040420F00400D030010B5FFF71A
:1001F000D9FF10BD704710B5164A136803210B4391
:100200001360154A154B9A420DD20333144A9B1AB8
:100210009B0801339B0000220F4812498C588450E0
:1002200004329A42FAD1104A104B9A4209D2111D57
:1002300003335B1A032083435B18002102C29A42F6
:10024000FCD1FFF7D7FFFFF761FFFFF7D3FF20BF18
:10025000FDE7C0462405004000000020000000200B
:1002600004000020480300000000002000000020DF
:1002700070B5002812DB83109B00134A9446634438
:100280001C68C000FF221600864003252E40B443A0
:100290000A4082402A4022431A6070BD030008339E
:1002A0009B109B00094A944663441C68C000FF22CF
:1002B0001600864003252E40B4430A4082402A405F
:1002C00022431A60E9E7C04600E400E01CED00E0CC
:1002D00001238340014A13607047C04600E100E0FB
:1002E00001238340014A13607047C04680E100E06B
:1002F00001238340014A13607047C04680E200E05A
:10030000F03F0000F05F0000B09F0000F03B0000F5
:10031000F05B0000B09F0000F0390000B05B00000F
:10032000A09F0000F0380000B0590000A08B000032
:1003300030380000A0590000808300000000000059
:080340000000000000000000B5
:00000001FF
